{
  "contractName": "BidProductFactory",
  "abi": [
    {
      "inputs": [
        {
          "internalType": "uint256",
          "name": "_createBidFees",
          "type": "uint256"
        }
      ],
      "stateMutability": "nonpayable",
      "type": "constructor"
    },
    {
      "anonymous": false,
      "inputs": [
        {
          "indexed": true,
          "internalType": "uint256",
          "name": "bidProductId",
          "type": "uint256"
        },
        {
          "indexed": true,
          "internalType": "address",
          "name": "bidAddress",
          "type": "address"
        }
      ],
      "name": "BidProductCreated",
      "type": "event"
    },
    {
      "anonymous": false,
      "inputs": [
        {
          "indexed": true,
          "internalType": "uint256",
          "name": "createBidFees",
          "type": "uint256"
        }
      ],
      "name": "BidProductinitialized",
      "type": "event"
    },
    {
      "anonymous": false,
      "inputs": [
        {
          "indexed": true,
          "internalType": "address",
          "name": "previousOwner",
          "type": "address"
        },
        {
          "indexed": true,
          "internalType": "address",
          "name": "newOwner",
          "type": "address"
        }
      ],
      "name": "OwnershipTransferred",
      "type": "event"
    },
    {
      "inputs": [
        {
          "internalType": "uint256",
          "name": "",
          "type": "uint256"
        }
      ],
      "name": "bidProductAddress",
      "outputs": [
        {
          "internalType": "address",
          "name": "",
          "type": "address"
        }
      ],
      "stateMutability": "view",
      "type": "function",
      "constant": true
    },
    {
      "inputs": [
        {
          "internalType": "uint256",
          "name": "",
          "type": "uint256"
        }
      ],
      "name": "bidProductToOwner",
      "outputs": [
        {
          "internalType": "address",
          "name": "",
          "type": "address"
        }
      ],
      "stateMutability": "view",
      "type": "function",
      "constant": true
    },
    {
      "inputs": [
        {
          "internalType": "uint256",
          "name": "",
          "type": "uint256"
        }
      ],
      "name": "bidProducts",
      "outputs": [
        {
          "internalType": "address",
          "name": "productOwner",
          "type": "address"
        },
        {
          "internalType": "string",
          "name": "productName",
          "type": "string"
        },
        {
          "internalType": "uint256",
          "name": "bidMultiplier",
          "type": "uint256"
        },
        {
          "internalType": "uint256",
          "name": "productPrice",
          "type": "uint256"
        }
      ],
      "stateMutability": "view",
      "type": "function",
      "constant": true
    },
    {
      "inputs": [],
      "name": "createBidFees",
      "outputs": [
        {
          "internalType": "uint256",
          "name": "",
          "type": "uint256"
        }
      ],
      "stateMutability": "view",
      "type": "function",
      "constant": true
    },
    {
      "inputs": [],
      "name": "owner",
      "outputs": [
        {
          "internalType": "address",
          "name": "",
          "type": "address"
        }
      ],
      "stateMutability": "view",
      "type": "function",
      "constant": true
    },
    {
      "inputs": [],
      "name": "productCount",
      "outputs": [
        {
          "internalType": "uint256",
          "name": "",
          "type": "uint256"
        }
      ],
      "stateMutability": "view",
      "type": "function",
      "constant": true
    },
    {
      "inputs": [],
      "name": "renounceOwnership",
      "outputs": [],
      "stateMutability": "nonpayable",
      "type": "function"
    },
    {
      "inputs": [
        {
          "internalType": "address",
          "name": "newOwner",
          "type": "address"
        }
      ],
      "name": "transferOwnership",
      "outputs": [],
      "stateMutability": "nonpayable",
      "type": "function"
    },
    {
      "inputs": [
        {
          "internalType": "uint256",
          "name": "_bidProductPrice",
          "type": "uint256"
        },
        {
          "internalType": "uint256",
          "name": "_bidMultiplier",
          "type": "uint256"
        },
        {
          "internalType": "string",
          "name": "_bidProductName",
          "type": "string"
        }
      ],
      "name": "createBidProduct",
      "outputs": [],
      "stateMutability": "payable",
      "type": "function",
      "payable": true
    },
    {
      "inputs": [],
      "name": "getAllBidProduct",
      "outputs": [
        {
          "internalType": "address[]",
          "name": "",
          "type": "address[]"
        }
      ],
      "stateMutability": "view",
      "type": "function",
      "constant": true
    },
    {
      "inputs": [
        {
          "internalType": "uint256",
          "name": "_bidProductId",
          "type": "uint256"
        },
        {
          "internalType": "uint256",
          "name": "_price",
          "type": "uint256"
        }
      ],
      "name": "checkBidProductPrice",
      "outputs": [
        {
          "internalType": "bool",
          "name": "",
          "type": "bool"
        }
      ],
      "stateMutability": "view",
      "type": "function",
      "constant": true
    },
    {
      "inputs": [
        {
          "internalType": "uint256",
          "name": "_bidProductId",
          "type": "uint256"
        }
      ],
      "name": "getBidProductName",
      "outputs": [
        {
          "internalType": "string",
          "name": "",
          "type": "string"
        }
      ],
      "stateMutability": "view",
      "type": "function",
      "constant": true
    },
    {
      "inputs": [
        {
          "internalType": "uint256",
          "name": "_bidProductId",
          "type": "uint256"
        }
      ],
      "name": "getBidProductPrice",
      "outputs": [
        {
          "internalType": "uint256",
          "name": "",
          "type": "uint256"
        }
      ],
      "stateMutability": "view",
      "type": "function",
      "constant": true
    },
    {
      "inputs": [
        {
          "internalType": "uint256",
          "name": "_bidProductId",
          "type": "uint256"
        }
      ],
      "name": "getBidMultiplier",
      "outputs": [
        {
          "internalType": "uint256",
          "name": "",
          "type": "uint256"
        }
      ],
      "stateMutability": "view",
      "type": "function",
      "constant": true
    },
    {
      "inputs": [
        {
          "internalType": "uint256",
          "name": "_bidProductId",
          "type": "uint256"
        }
      ],
      "name": "getBidProductOwner",
      "outputs": [
        {
          "internalType": "address",
          "name": "",
          "type": "address"
        }
      ],
      "stateMutability": "view",
      "type": "function",
      "constant": true
    }
  ],
  "bytecode": "0x608060405260006003553480156200001657600080fd5b506040516200188c3803806200188c83398181016040528101906200003c919062000148565b60006200004e6200012960201b60201c565b9050806000806101000a81548173ffffffffffffffffffffffffffffffffffffffff021916908373ffffffffffffffffffffffffffffffffffffffff1602179055508073ffffffffffffffffffffffffffffffffffffffff16600073ffffffffffffffffffffffffffffffffffffffff167f8be0079c531659141344cd1fd0a4f28419497f9722a3daafe3b4186f6b6457e060405160405180910390a350806001819055506001547fff38c92cd790755d2aaac94e2f796124cd9ceb06ca7ad5314c619fd46991d99b60405160405180910390a25062000198565b600033905090565b60008151905062000142816200017e565b92915050565b6000602082840312156200015b57600080fd5b60006200016b8482850162000131565b91505092915050565b6000819050919050565b620001898162000174565b81146200019557600080fd5b50565b6116e480620001a86000396000f3fe6080604052600436106100e85760003560e01c8063d10ad2321161008a578063f2fde38b11610059578063f2fde38b14610312578063f754bad41461033b578063fc62c87414610366578063fe8d287c146103a3576100e8565b8063d10ad23214610242578063d11e44d81461027f578063d9c7b0f9146102bc578063e0f6ef87146102e7576100e8565b80631cf73bf5116100c65780631cf73bf5146101a7578063715018a6146101e45780637ea750fc146101fb5780638da5cb5b14610217576100e8565b806314225657146100ed57806314b4e4d61461012a5780631727dfbd14610167575b600080fd5b3480156100f957600080fd5b50610114600480360381019061010f919061104d565b6103e0565b60405161012191906113b6565b60405180910390f35b34801561013657600080fd5b50610151600480360381019061014c919061104d565b610413565b60405161015e919061151c565b60405180910390f35b34801561017357600080fd5b5061018e6004803603810190610189919061104d565b610433565b60405161019e94939291906113d1565b60405180910390f35b3480156101b357600080fd5b506101ce60048036038101906101c99190611076565b61051b565b6040516101db919061143f565b60405180910390f35b3480156101f057600080fd5b506101f9610689565b005b610215600480360381019061021091906110b2565b6107dc565b005b34801561022357600080fd5b5061022c610a7a565b60405161023991906113b6565b60405180910390f35b34801561024e57600080fd5b506102696004803603810190610264919061104d565b610aa3565b60405161027691906113b6565b60405180910390f35b34801561028b57600080fd5b506102a660048036038101906102a1919061104d565b610adf565b6040516102b391906113b6565b60405180910390f35b3480156102c857600080fd5b506102d1610b1f565b6040516102de919061151c565b60405180910390f35b3480156102f357600080fd5b506102fc610b25565b604051610309919061151c565b60405180910390f35b34801561031e57600080fd5b5061033960048036038101906103349190611024565b610b2b565b005b34801561034757600080fd5b50610350610ced565b60405161035d919061141d565b60405180910390f35b34801561037257600080fd5b5061038d6004803603810190610388919061104d565b610d7b565b60405161039a919061151c565b60405180910390f35b3480156103af57600080fd5b506103ca60048036038101906103c5919061104d565b610d9b565b6040516103d7919061145a565b60405180910390f35b60046020528060005260406000206000915054906101000a900473ffffffffffffffffffffffffffffffffffffffff1681565b600060056000838152602001908152602001600020600301549050919050565b60056020528060005260406000206000915090508060000160009054906101000a900473ffffffffffffffffffffffffffffffffffffffff1690806001018054600181600116156101000203166002900480601f0160208091040260200160405190810160405280929190818152602001828054600181600116156101000203166002900480156105055780601f106104da57610100808354040283529160200191610505565b820191906000526020600020905b8154815290600101906020018083116104e857829003601f168201915b5050505050908060020154908060030154905084565b6000610525610ecb565b600560008581526020019081526020016000206040518060800160405290816000820160009054906101000a900473ffffffffffffffffffffffffffffffffffffffff1673ffffffffffffffffffffffffffffffffffffffff1673ffffffffffffffffffffffffffffffffffffffff168152602001600182018054600181600116156101000203166002900480601f0160208091040260200160405190810160405280929190818152602001828054600181600116156101000203166002900480156106325780601f1061060757610100808354040283529160200191610632565b820191906000526020600020905b81548152906001019060200180831161061557829003601f168201915b5050505050815260200160028201548152602001600382015481525050905061066c81606001518260400151610e5390919063ffffffff16565b83141561067d576001915050610683565b60009150505b92915050565b610691610ec3565b73ffffffffffffffffffffffffffffffffffffffff1660008054906101000a900473ffffffffffffffffffffffffffffffffffffffff1673ffffffffffffffffffffffffffffffffffffffff161461071e576040517f08c379a0000000000000000000000000000000000000000000000000000000008152600401610715906114bc565b60405180910390fd5b600073ffffffffffffffffffffffffffffffffffffffff1660008054906101000a900473ffffffffffffffffffffffffffffffffffffffff1673ffffffffffffffffffffffffffffffffffffffff167f8be0079c531659141344cd1fd0a4f28419497f9722a3daafe3b4186f6b6457e060405160405180910390a360008060006101000a81548173ffffffffffffffffffffffffffffffffffffffff021916908373ffffffffffffffffffffffffffffffffffffffff160217905550565b6107e4610a7a565b73ffffffffffffffffffffffffffffffffffffffff163373ffffffffffffffffffffffffffffffffffffffff161415610852576040517f08c379a0000000000000000000000000000000000000000000000000000000008152600401610849906114fc565b60405180910390fd5b6001543411610896576040517f08c379a000000000000000000000000000000000000000000000000000000000815260040161088d906114dc565b60405180910390fd5b61089e610ecb565b60405180608001604052803373ffffffffffffffffffffffffffffffffffffffff1681526020018381526020018481526020018581525090508060056000600354815260200190815260200160002060008201518160000160006101000a81548173ffffffffffffffffffffffffffffffffffffffff021916908373ffffffffffffffffffffffffffffffffffffffff1602179055506020820151816001019080519060200190610950929190610f09565b5060408201518160020155606082015181600301559050503360046000600354815260200190815260200160002060006101000a81548173ffffffffffffffffffffffffffffffffffffffff021916908373ffffffffffffffffffffffffffffffffffffffff1602179055506002339080600181540180825580915050600190039060005260206000200160009091909190916101000a81548173ffffffffffffffffffffffffffffffffffffffff021916908373ffffffffffffffffffffffffffffffffffffffff1602179055506001600354016003819055503373ffffffffffffffffffffffffffffffffffffffff166001600354037f0fe5091e34eefd8c2617a317730a56316532c34d55347fb4d78d99aec3e5805260405160405180910390a350505050565b60008060009054906101000a900473ffffffffffffffffffffffffffffffffffffffff16905090565b60028181548110610ab057fe5b906000526020600020016000915054906101000a900473ffffffffffffffffffffffffffffffffffffffff1681565b60006005600083815260200190815260200160002060000160009054906101000a900473ffffffffffffffffffffffffffffffffffffffff169050919050565b60015481565b60035481565b610b33610ec3565b73ffffffffffffffffffffffffffffffffffffffff1660008054906101000a900473ffffffffffffffffffffffffffffffffffffffff1673ffffffffffffffffffffffffffffffffffffffff1614610bc0576040517f08c379a0000000000000000000000000000000000000000000000000000000008152600401610bb7906114bc565b60405180910390fd5b600073ffffffffffffffffffffffffffffffffffffffff168173ffffffffffffffffffffffffffffffffffffffff161415610c30576040517f08c379a0000000000000000000000000000000000000000000000000000000008152600401610c279061147c565b60405180910390fd5b8073ffffffffffffffffffffffffffffffffffffffff1660008054906101000a900473ffffffffffffffffffffffffffffffffffffffff1673ffffffffffffffffffffffffffffffffffffffff167f8be0079c531659141344cd1fd0a4f28419497f9722a3daafe3b4186f6b6457e060405160405180910390a3806000806101000a81548173ffffffffffffffffffffffffffffffffffffffff021916908373ffffffffffffffffffffffffffffffffffffffff16021790555050565b60606002805480602002602001604051908101604052809291908181526020018280548015610d7157602002820191906000526020600020905b8160009054906101000a900473ffffffffffffffffffffffffffffffffffffffff1673ffffffffffffffffffffffffffffffffffffffff1681526020019060010190808311610d27575b5050505050905090565b600060056000838152602001908152602001600020600201549050919050565b6060600560008381526020019081526020016000206001018054600181600116156101000203166002900480601f016020809104026020016040519081016040528092919081815260200182805460018160011615610100020316600290048015610e475780601f10610e1c57610100808354040283529160200191610e47565b820191906000526020600020905b815481529060010190602001808311610e2a57829003601f168201915b50505050509050919050565b600080831415610e665760009050610ebd565b6000828402905082848281610e7757fe5b0414610eb8576040517f08c379a0000000000000000000000000000000000000000000000000000000008152600401610eaf9061149c565b60405180910390fd5b809150505b92915050565b600033905090565b6040518060800160405280600073ffffffffffffffffffffffffffffffffffffffff1681526020016060815260200160008152602001600081525090565b828054600181600116156101000203166002900490600052602060002090601f016020900481019282601f10610f4a57805160ff1916838001178555610f78565b82800160010185558215610f78579182015b82811115610f77578251825591602001919060010190610f5c565b5b509050610f859190610f89565b5090565b5b80821115610fa2576000816000905550600101610f8a565b5090565b600081359050610fb581611680565b92915050565b600082601f830112610fcc57600080fd5b8135610fdf610fda82611564565b611537565b91508082526020830160208301858383011115610ffb57600080fd5b61100683828461162d565b50505092915050565b60008135905061101e81611697565b92915050565b60006020828403121561103657600080fd5b600061104484828501610fa6565b91505092915050565b60006020828403121561105f57600080fd5b600061106d8482850161100f565b91505092915050565b6000806040838503121561108957600080fd5b60006110978582860161100f565b92505060206110a88582860161100f565b9150509250929050565b6000806000606084860312156110c757600080fd5b60006110d58682870161100f565b93505060206110e68682870161100f565b925050604084013567ffffffffffffffff81111561110357600080fd5b61110f86828701610fbb565b9150509250925092565b60006111258383611131565b60208301905092915050565b61113a816115e5565b82525050565b611149816115e5565b82525050565b600061115a826115a0565b61116481856115c3565b935061116f83611590565b8060005b838110156111a05781516111878882611119565b9750611192836115b6565b925050600181019050611173565b5085935050505092915050565b6111b6816115f7565b82525050565b60006111c7826115ab565b6111d181856115d4565b93506111e181856020860161163c565b6111ea8161166f565b840191505092915050565b60006112026026836115d4565b91507f4f776e61626c653a206e6577206f776e657220697320746865207a65726f206160008301527f64647265737300000000000000000000000000000000000000000000000000006020830152604082019050919050565b60006112686021836115d4565b91507f536166654d6174683a206d756c7469706c69636174696f6e206f766572666c6f60008301527f77000000000000000000000000000000000000000000000000000000000000006020830152604082019050919050565b60006112ce6020836115d4565b91507f4f776e61626c653a2063616c6c6572206973206e6f7420746865206f776e65726000830152602082019050919050565b600061130e6024836115d4565b91507f42696450726f64756374466163746f72793a204e6f7420656e6f75676820657460008301527f68657273000000000000000000000000000000000000000000000000000000006020830152604082019050919050565b6000611374601d836115d4565b91507f42696450726f64756374466163746f72793a20726573747269637465640000006000830152602082019050919050565b6113b081611623565b82525050565b60006020820190506113cb6000830184611140565b92915050565b60006080820190506113e66000830187611140565b81810360208301526113f881866111bc565b905061140760408301856113a7565b61141460608301846113a7565b95945050505050565b60006020820190508181036000830152611437818461114f565b905092915050565b600060208201905061145460008301846111ad565b92915050565b6000602082019050818103600083015261147481846111bc565b905092915050565b60006020820190508181036000830152611495816111f5565b9050919050565b600060208201905081810360008301526114b58161125b565b9050919050565b600060208201905081810360008301526114d5816112c1565b9050919050565b600060208201905081810360008301526114f581611301565b9050919050565b6000602082019050818103600083015261151581611367565b9050919050565b600060208201905061153160008301846113a7565b92915050565b6000604051905081810181811067ffffffffffffffff8211171561155a57600080fd5b8060405250919050565b600067ffffffffffffffff82111561157b57600080fd5b601f19601f8301169050602081019050919050565b6000819050602082019050919050565b600081519050919050565b600081519050919050565b6000602082019050919050565b600082825260208201905092915050565b600082825260208201905092915050565b60006115f082611603565b9050919050565b60008115159050919050565b600073ffffffffffffffffffffffffffffffffffffffff82169050919050565b6000819050919050565b82818337600083830152505050565b60005b8381101561165a57808201518184015260208101905061163f565b83811115611669576000848401525b50505050565b6000601f19601f8301169050919050565b611689816115e5565b811461169457600080fd5b50565b6116a081611623565b81146116ab57600080fd5b5056fea2646970667358221220aa1489177287a999f896669bc93e0b4ecc090f78c6ce28af9a78ef16d260660964736f6c634300060c0033",
  "immutableReferences": {},
  "source": "// SPDX-License-Identifier: MIT\n\npragma solidity >0.4.0 <0.7.0;\npragma experimental ABIEncoderV2;\n\n\nimport \"../node_modules/@openzeppelin/contracts/math/SafeMath.sol\";\nimport \"../node_modules/@openzeppelin/contracts/access/Ownable.sol\";\n\ncontract BidProductFactory is Ownable {\n\n    using SafeMath for uint;\n    uint public createBidFees;\n    address[] public bidProductAddress;\n    uint public productCount = 0;\n    struct BidProductStruct{\n        address productOwner;\n        string productName;\n        uint bidMultiplier;\n        uint productPrice;\n    }\n    mapping(uint => address) public bidProductToOwner;\n    mapping(uint => BidProductStruct)public bidProducts;\n    event BidProductinitialized(uint indexed createBidFees);\n    event BidProductCreated(uint indexed bidProductId , address indexed bidAddress);\n\n\n    constructor(uint _createBidFees) public {\n        createBidFees = _createBidFees;\n        emit BidProductinitialized(createBidFees);\n    }\n\n    modifier notTheOwner(){\n        require(msg.sender != owner(),\"BidProductFactory: restricted\");\n        _;\n    }\n\n    function createBidProduct(uint _bidProductPrice , uint _bidMultiplier , string memory _bidProductName ) external notTheOwner payable {\n        require(msg.value > createBidFees,\"BidProductFactory: Not enough ethers\");\n        BidProductStruct memory bidProd = BidProductStruct(msg.sender , _bidProductName , _bidMultiplier ,_bidProductPrice);\n        //bidProd.productOwner = msg.sender;\n        //bidProd.bidMultiplier = _bidMultiplier;\n        //bidProd.productName = _bidProductName;\n        //bidProd.productPrice = _bidProductPrice;\n        bidProducts[productCount] = bidProd;\n        bidProductToOwner[productCount] = msg.sender;\n        bidProductAddress.push(msg.sender);\n        productCount = productCount + 1;\n        emit BidProductCreated(productCount - 1,msg.sender);\n    }\n\n    function getAllBidProduct() public view returns(address[] memory){\n        return bidProductAddress;\n    }\n\n    function checkBidProductPrice(uint _bidProductId , uint _price)public view returns(bool){\n        BidProductStruct memory bidProd = bidProducts[_bidProductId];\n        if(_price == (bidProd.bidMultiplier.mul(bidProd.productPrice))){\n            return true;\n        }\n        else{\n            return false;\n        }\n    }\n\n    function getBidProductName(uint _bidProductId) public view returns(string memory){\n        return bidProducts[_bidProductId].productName;\n    }\n\n    function getBidProductPrice(uint _bidProductId) public view returns(uint){\n        return bidProducts[_bidProductId].productPrice;\n    }\n\n    function getBidMultiplier(uint _bidProductId) public view returns(uint){\n        return bidProducts[_bidProductId].bidMultiplier;\n    }\n\n    function getBidProductOwner(uint _bidProductId) public view returns(address){\n        return bidProducts[_bidProductId].productOwner;\n    }\n    \n}\n",
  "sourcePath": "C:\\BLOCKCHAIN DEVELOPMENT\\sem 2\\Acadamic project\\bidProduct\\contracts\\BidProductFactory.sol",
  "compiler": {
    "name": "solc",
    "version": "0.6.12+commit.27d51765.Emscripten.clang"
  },
  "schemaVersion": "3.2.0",
  "updatedAt": "2020-08-13T22:44:54.869Z",
  "networkType": "ethereum",
  "devdoc": {
    "kind": "dev",
    "methods": {
      "owner()": {
        "details": "Returns the address of the current owner."
      },
      "renounceOwnership()": {
        "details": "Leaves the contract without owner. It will not be possible to call `onlyOwner` functions anymore. Can only be called by the current owner. NOTE: Renouncing ownership will leave the contract without an owner, thereby removing any functionality that is only available to the owner."
      },
      "transferOwnership(address)": {
        "details": "Transfers ownership of the contract to a new account (`newOwner`). Can only be called by the current owner."
      }
    },
    "version": 1
  },
  "userdoc": {
    "kind": "user",
    "methods": {},
    "version": 1
  }
}